{
  "contractName": "Sorter",
  "abi": [
    {
      "inputs": [
        {
          "internalType": "uint256[]",
          "name": "_data",
          "type": "uint256[]"
        }
      ],
      "name": "iterativeBubbleSort",
      "outputs": [
        {
          "internalType": "uint256[]",
          "name": "",
          "type": "uint256[]"
        }
      ],
      "stateMutability": "pure",
      "type": "function",
      "constant": true
    }
  ],
  "bytecode": "0x608060405234801561001057600080fd5b506105cf806100206000396000f3fe608060405234801561001057600080fd5b506004361061002b5760003560e01c8063a4268fc514610030575b600080fd5b61004a60048036038101906100459190610362565b610060565b6040516100579190610469565b60405180910390f35b606060008251905060005b60018261007891906104ba565b8110156101a55760005b8160018461009091906104ba565b61009a91906104ba565b81101561019157846001826100af91906104ee565b815181106100c0576100bf610522565b5b60200260200101518582815181106100db576100da610522565b5b6020026020010151111561017e576101338582815181106100ff576100fe610522565b5b60200260200101518660018461011591906104ee565b8151811061012657610125610522565b5b60200260200101516101af565b86838151811061014657610145610522565b5b602002602001018760018561015b91906104ee565b8151811061016c5761016b610522565b5b60200260200101828152508281525050505b808061018990610551565b915050610082565b50808061019d90610551565b91505061006b565b5082915050919050565b6000808284915091509250929050565b6000604051905090565b600080fd5b600080fd5b600080fd5b6000601f19601f8301169050919050565b7f4e487b7100000000000000000000000000000000000000000000000000000000600052604160045260246000fd5b610221826101d8565b810181811067ffffffffffffffff821117156102405761023f6101e9565b5b80604052505050565b60006102536101bf565b905061025f8282610218565b919050565b600067ffffffffffffffff82111561027f5761027e6101e9565b5b602082029050602081019050919050565b600080fd5b6000819050919050565b6102a881610295565b81146102b357600080fd5b50565b6000813590506102c58161029f565b92915050565b60006102de6102d984610264565b610249565b9050808382526020820190506020840283018581111561030157610300610290565b5b835b8181101561032a578061031688826102b6565b845260208401935050602081019050610303565b5050509392505050565b600082601f830112610349576103486101d3565b5b81356103598482602086016102cb565b91505092915050565b600060208284031215610378576103776101c9565b5b600082013567ffffffffffffffff811115610396576103956101ce565b5b6103a284828501610334565b91505092915050565b600081519050919050565b600082825260208201905092915050565b6000819050602082019050919050565b6103e081610295565b82525050565b60006103f283836103d7565b60208301905092915050565b6000602082019050919050565b6000610416826103ab565b61042081856103b6565b935061042b836103c7565b8060005b8381101561045c57815161044388826103e6565b975061044e836103fe565b92505060018101905061042f565b5085935050505092915050565b60006020820190508181036000830152610483818461040b565b905092915050565b7f4e487b7100000000000000000000000000000000000000000000000000000000600052601160045260246000fd5b60006104c582610295565b91506104d083610295565b92508282039050818111156104e8576104e761048b565b5b92915050565b60006104f982610295565b915061050483610295565b925082820190508082111561051c5761051b61048b565b5b92915050565b7f4e487b7100000000000000000000000000000000000000000000000000000000600052603260045260246000fd5b600061055c82610295565b91507fffffffffffffffffffffffffffffffffffffffffffffffffffffffffffffffff820361058e5761058d61048b565b5b60018201905091905056fea2646970667358221220316f939c30a7be262d86b08ee318faa316e697cc099565fe33c03eb05623ee1f64736f6c63430008120033",
  "immutableReferences": {},
  "source": "pragma solidity >=0.5.0 <=0.8.18;\n\n/*\n * TESTS\n * We will test your code with our test cases by calling 'truffle test'\n * We are using truffle's automated testing framework\n * We wrote the tests in Solidity but it is also possible to use JavaScript's Mocha framework\n * Learn how to test: https://www.trufflesuite.com/docs/truffle/testing/writing-tests-in-solidity\n * 10 test cases, each is worth 8 points (5 test cases for iterative bubble sort, 5 for recursive)\n * You are encouraged to write your own test cases\n *\n * ORDER\n * Sort from SMALLEST TO LARGEST uint\n *\n * EXAMPLES\n * Input: uint[] array = [4,3,2,3];\n * Output: uint[] expected = [2,3,3,4];\n *\n * NOTE\n * We WILL VERIFY you wrote an iterative/recursive bubble sort as instructed\n * Writing two iterative or two recursive solutions will result in 0 points for the whole assignment\n */\n\n// Implement Bubble sorts (Do NOT rename the contract)\ncontract Sorter {\n    function _swap(uint a, uint b) internal pure returns (uint x, uint y){\n        return (b,a);\n    }\n\n    function iterativeBubbleSort(uint[] memory _data) public pure returns (uint[] memory) {\n        uint n = _data.length;\n        for (uint i=0; i<n-1; i++){\n            for (uint j=0; j<n-1-i; j++){\n                if (_data[j] > _data[j+1]){\n                    (_data[j], _data[j+1]) = _swap(_data[j], _data[j+1]);\n                }\n            }\n        }\n        \n        return _data;\n    }\n\n    // function recursiveBubbleSort(uint[] memory _data, uint8 _size) public pure returns (uint[] memory) {\n\n    //     if (_size == 1){\n    //         return _data;\n    //     }\n    //     uint count = 0;\n    //     for (uint j=0; j<_size-1; j++){\n    //         if (_data[j] > _data[j+1]){\n    //             (_data[j], _data[j+1]) = _swap(_data[j], _data[j+1]);\n    //             count++;\n    //         }\n    //     }\n\n    //     if(count == 0){\n    //         return _data;\n    //     }\n    //     recursiveBubbleSort(_data, _size-1);\n\n    //     return _data;\n    // }\n}\n",
  "sourcePath": "/Users/pratiksha/spring-2023/BC/Programming1_Spring2023/Programming1/programming_one/contracts/Sorter.sol",
  "compiler": {
    "name": "solc",
    "version": "0.8.18+commit.87f61d96.Emscripten.clang"
  },
  "schemaVersion": "3.4.13",
  "updatedAt": "2023-03-06T21:03:52.184Z",
  "networkType": "ethereum",
  "devdoc": {
    "kind": "dev",
    "methods": {},
    "version": 1
  },
  "userdoc": {
    "kind": "user",
    "methods": {},
    "version": 1
  }
}